{
  "_format": "hh-sol-artifact-1",
  "contractName": "ProjectRegistry",
  "sourceName": "contracts/ProjectRegistry.sol",
  "abi": [
    {
      "inputs": [],
      "stateMutability": "nonpayable",
      "type": "constructor"
    },
    {
      "inputs": [
        {
          "internalType": "address",
          "name": "owner",
          "type": "address"
        }
      ],
      "name": "OwnableInvalidOwner",
      "type": "error"
    },
    {
      "inputs": [
        {
          "internalType": "address",
          "name": "account",
          "type": "address"
        }
      ],
      "name": "OwnableUnauthorizedAccount",
      "type": "error"
    },
    {
      "inputs": [],
      "name": "ReentrancyGuardReentrantCall",
      "type": "error"
    },
    {
      "anonymous": false,
      "inputs": [
        {
          "indexed": true,
          "internalType": "address",
          "name": "previousOwner",
          "type": "address"
        },
        {
          "indexed": true,
          "internalType": "address",
          "name": "newOwner",
          "type": "address"
        }
      ],
      "name": "OwnershipTransferred",
      "type": "event"
    },
    {
      "anonymous": false,
      "inputs": [
        {
          "indexed": true,
          "internalType": "string",
          "name": "projectId",
          "type": "string"
        },
        {
          "indexed": false,
          "internalType": "uint256",
          "name": "timestamp",
          "type": "uint256"
        }
      ],
      "name": "ProjectDeactivated",
      "type": "event"
    },
    {
      "anonymous": false,
      "inputs": [
        {
          "indexed": true,
          "internalType": "string",
          "name": "projectId",
          "type": "string"
        },
        {
          "indexed": false,
          "internalType": "string",
          "name": "name",
          "type": "string"
        },
        {
          "indexed": false,
          "internalType": "address[]",
          "name": "contributors",
          "type": "address[]"
        },
        {
          "indexed": false,
          "internalType": "uint256[]",
          "name": "shares",
          "type": "uint256[]"
        },
        {
          "indexed": false,
          "internalType": "uint256",
          "name": "timestamp",
          "type": "uint256"
        }
      ],
      "name": "ProjectRegistered",
      "type": "event"
    },
    {
      "anonymous": false,
      "inputs": [
        {
          "indexed": true,
          "internalType": "string",
          "name": "projectId",
          "type": "string"
        },
        {
          "indexed": false,
          "internalType": "uint256",
          "name": "timestamp",
          "type": "uint256"
        }
      ],
      "name": "ProjectUpdated",
      "type": "event"
    },
    {
      "inputs": [
        {
          "internalType": "string",
          "name": "projectId",
          "type": "string"
        }
      ],
      "name": "deactivateProject",
      "outputs": [],
      "stateMutability": "nonpayable",
      "type": "function"
    },
    {
      "inputs": [],
      "name": "getAllProjectIds",
      "outputs": [
        {
          "internalType": "string[]",
          "name": "",
          "type": "string[]"
        }
      ],
      "stateMutability": "view",
      "type": "function"
    },
    {
      "inputs": [
        {
          "internalType": "string",
          "name": "projectId",
          "type": "string"
        }
      ],
      "name": "getProject",
      "outputs": [
        {
          "components": [
            {
              "internalType": "string",
              "name": "projectId",
              "type": "string"
            },
            {
              "internalType": "string",
              "name": "name",
              "type": "string"
            },
            {
              "internalType": "address[]",
              "name": "contributors",
              "type": "address[]"
            },
            {
              "internalType": "uint256[]",
              "name": "shares",
              "type": "uint256[]"
            },
            {
              "internalType": "uint256",
              "name": "totalRevenue",
              "type": "uint256"
            },
            {
              "internalType": "bool",
              "name": "isActive",
              "type": "bool"
            },
            {
              "internalType": "uint256",
              "name": "createdAt",
              "type": "uint256"
            }
          ],
          "internalType": "struct IProjectRegistry.Project",
          "name": "",
          "type": "tuple"
        }
      ],
      "stateMutability": "view",
      "type": "function"
    },
    {
      "inputs": [
        {
          "internalType": "string",
          "name": "projectId",
          "type": "string"
        },
        {
          "internalType": "uint256",
          "name": "amount",
          "type": "uint256"
        }
      ],
      "name": "incrementTotalRevenue",
      "outputs": [],
      "stateMutability": "nonpayable",
      "type": "function"
    },
    {
      "inputs": [
        {
          "internalType": "string",
          "name": "projectId",
          "type": "string"
        }
      ],
      "name": "isProjectActive",
      "outputs": [
        {
          "internalType": "bool",
          "name": "",
          "type": "bool"
        }
      ],
      "stateMutability": "view",
      "type": "function"
    },
    {
      "inputs": [],
      "name": "owner",
      "outputs": [
        {
          "internalType": "address",
          "name": "",
          "type": "address"
        }
      ],
      "stateMutability": "view",
      "type": "function"
    },
    {
      "inputs": [
        {
          "internalType": "string",
          "name": "projectId",
          "type": "string"
        },
        {
          "internalType": "string",
          "name": "name",
          "type": "string"
        },
        {
          "internalType": "address[]",
          "name": "contributors",
          "type": "address[]"
        },
        {
          "internalType": "uint256[]",
          "name": "shares",
          "type": "uint256[]"
        }
      ],
      "name": "registerProject",
      "outputs": [],
      "stateMutability": "nonpayable",
      "type": "function"
    },
    {
      "inputs": [],
      "name": "renounceOwnership",
      "outputs": [],
      "stateMutability": "nonpayable",
      "type": "function"
    },
    {
      "inputs": [
        {
          "internalType": "address",
          "name": "newOwner",
          "type": "address"
        }
      ],
      "name": "transferOwnership",
      "outputs": [],
      "stateMutability": "nonpayable",
      "type": "function"
    },
    {
      "inputs": [
        {
          "internalType": "string",
          "name": "projectId",
          "type": "string"
        },
        {
          "internalType": "address[]",
          "name": "contributors",
          "type": "address[]"
        },
        {
          "internalType": "uint256[]",
          "name": "shares",
          "type": "uint256[]"
        }
      ],
      "name": "updateProject",
      "outputs": [],
      "stateMutability": "nonpayable",
      "type": "function"
    }
  ],
  "bytecode": "0x608060405234801561001057600080fd5b50338061003757604051631e4fbdf760e01b81526000600482015260240160405180910390fd5b6100408161004a565b506001805561009a565b600080546001600160a01b038381166001600160a01b0319831681178455604051919092169283917f8be0079c531659141344cd1fd0a4f28419497f9722a3daafe3b4186f6b6457e09190a35050565b6118fa806100a96000396000f3fe608060405234801561001057600080fd5b506004361061009e5760003560e01c80638ecc2717116100665780638ecc2717146101195780639c545dd51461012c578063a88aa9921461013f578063b8a4908714610162578063f2fde38b1461017557600080fd5b8063191bd97a146100a35780634ac64766146100b85780634fa691e2146100d6578063715018a6146100f65780638da5cb5b146100fe575b600080fd5b6100b66100b13660046110d3565b610188565b005b6100c0610217565b6040516100cd9190611165565b60405180910390f35b6100e96100e43660046111c7565b6102f0565b6040516100cd9190611244565b6100b66105a9565b6000546040516001600160a01b0390911681526020016100cd565b6100b66101273660046111c7565b6105bd565b6100b661013a366004611362565b610689565b61015261014d3660046111c7565b61094c565b60405190151581526020016100cd565b6100b66101703660046113fc565b6109aa565b6100b66101833660046114dc565b610e8c565b610190610eca565b600383836040516101a29291906114f7565b9081526040519081900360200190205460ff166101da5760405162461bcd60e51b81526004016101d190611507565b60405180910390fd5b80600284846040516101ed9291906114f7565b9081526020016040518091039020600401600082825461020d919061154d565b9091555050505050565b60606004805480602002602001604051908101604052809291908181526020016000905b828210156102e757838290600052602060002001805461025a90611560565b80601f016020809104026020016040519081016040528092919081815260200182805461028690611560565b80156102d35780601f106102a8576101008083540402835291602001916102d3565b820191906000526020600020905b8154815290600101906020018083116102b657829003601f168201915b50505050508152602001906001019061023b565b50505050905090565b6103326040518060e001604052806060815260200160608152602001606081526020016060815260200160008152602001600015158152602001600081525090565b600383836040516103449291906114f7565b9081526040519081900360200190205460ff166103735760405162461bcd60e51b81526004016101d190611507565b600283836040516103859291906114f7565b90815260200160405180910390206040518060e00160405290816000820180546103ae90611560565b80601f01602080910402602001604051908101604052809291908181526020018280546103da90611560565b80156104275780601f106103fc57610100808354040283529160200191610427565b820191906000526020600020905b81548152906001019060200180831161040a57829003601f168201915b5050505050815260200160018201805461044090611560565b80601f016020809104026020016040519081016040528092919081815260200182805461046c90611560565b80156104b95780601f1061048e576101008083540402835291602001916104b9565b820191906000526020600020905b81548152906001019060200180831161049c57829003601f168201915b505050505081526020016002820180548060200260200160405190810160405280929190818152602001828054801561051b57602002820191906000526020600020905b81546001600160a01b031681526001909101906020018083116104fd575b505050505081526020016003820180548060200260200160405190810160405280929190818152602001828054801561057357602002820191906000526020600020905b81548152602001906001019080831161055f575b505050918352505060048201546020820152600582015460ff161515604082015260069091015460609091015290505b92915050565b6105b1610eca565b6105bb6000610ef7565b565b6105c5610eca565b600382826040516105d79291906114f7565b9081526040519081900360200190205460ff166106065760405162461bcd60e51b81526004016101d190611507565b60006002838360405161061a9291906114f7565b908152604051908190036020018120600501805492151560ff199093169290921790915561064b90839083906114f7565b604051908190038120428252907fe04e3d1319aab86f050a22670d53460dbd0da65dd8cd03b59a7fe7d084e17a9d9060200160405180910390a25050565b610691610eca565b600386866040516106a39291906114f7565b9081526040519081900360200190205460ff166106d25760405162461bcd60e51b81526004016101d190611507565b8261071a5760405162461bcd60e51b8152602060048201526018602482015277139bc818dbdb9d1c9a589d5d1bdc9cc81c1c9bdd9a59195960421b60448201526064016101d1565b8281146107395760405162461bcd60e51b81526004016101d19061159a565b6000805b82811015610864576000868683818110610759576107596115e1565b905060200201602081019061076e91906114dc565b6001600160a01b0316036107c45760405162461bcd60e51b815260206004820152601b60248201527f496e76616c696420636f6e7472696275746f722061646472657373000000000060448201526064016101d1565b60008484838181106107d8576107d86115e1565b905060200201351161082c5760405162461bcd60e51b815260206004820152601c60248201527f5368617265206d7573742062652067726561746572207468616e20300000000060448201526064016101d1565b83838281811061083e5761083e6115e1565b9050602002013582610850919061154d565b91508061085c816115f7565b91505061073d565b50806064146108b55760405162461bcd60e51b815260206004820152601b60248201527f546f74616c20736861726573206d75737420657175616c20313030000000000060448201526064016101d1565b6000600288886040516108c99291906114f7565b90815260405190819003602001902090506108e8600282018787610f47565b506108f7600382018585610faa565b5087876040516109089291906114f7565b604051908190038120428252907fb86c48108844c3e38fca901305ef1430f073c7a62a6b941a349fba3a38c51d1e9060200160405180910390a25050505050505050565b6000600383836040516109609291906114f7565b9081526040519081900360200190205460ff1680156109a357506002838360405161098c9291906114f7565b9081526040519081900360200190206005015460ff165b9392505050565b6109b2610eca565b600388886040516109c49291906114f7565b9081526040519081900360200190205460ff1615610a1d5760405162461bcd60e51b815260206004820152601660248201527550726f6a65637420616c72656164792065786973747360501b60448201526064016101d1565b82610a655760405162461bcd60e51b8152602060048201526018602482015277139bc818dbdb9d1c9a589d5d1bdc9cc81c1c9bdd9a59195960421b60448201526064016101d1565b828114610a845760405162461bcd60e51b81526004016101d19061159a565b6000805b82811015610baf576000868683818110610aa457610aa46115e1565b9050602002016020810190610ab991906114dc565b6001600160a01b031603610b0f5760405162461bcd60e51b815260206004820152601b60248201527f496e76616c696420636f6e7472696275746f722061646472657373000000000060448201526064016101d1565b6000848483818110610b2357610b236115e1565b9050602002013511610b775760405162461bcd60e51b815260206004820152601c60248201527f5368617265206d7573742062652067726561746572207468616e20300000000060448201526064016101d1565b838382818110610b8957610b896115e1565b9050602002013582610b9b919061154d565b915080610ba7816115f7565b915050610a88565b5080606414610c005760405162461bcd60e51b815260206004820152601b60248201527f546f74616c20736861726573206d75737420657175616c20313030000000000060448201526064016101d1565b6040518060e001604052808a8a8080601f016020809104026020016040519081016040528093929190818152602001838380828437600092019190915250505090825250604080516020601f8b0181900481028201810190925289815291810191908a908a9081908401838280828437600092019190915250505090825250604080516020888102828101820190935288825292830192909189918991829185019084908082843760009201919091525050509082525060408051602086810282810182019093528682529283019290918791879182918501908490808284376000920182905250938552505050602082015260016040808301919091524260609092019190915251600290610d19908c908c906114f7565b90815260405190819003602001902081518190610d369082611675565b5060208201516001820190610d4b9082611675565b5060408201518051610d67916002840191602090910190610fe5565b5060608201518051610d8391600384019160209091019061103a565b506080820151600482015560a082015160058201805460ff191691151591909117905560c090910151600690910155604051600190600390610dc8908c908c906114f7565b908152604051908190036020019020805491151560ff19909216919091179055600480546001810182556000919091527f8a35acfbc15ff81a39ae7d344fd709f28e8600b4aa8c65c6b64bfe7fe36bd19b01610e25898b83611735565b508888604051610e369291906114f7565b60405180910390207f7371617c9ee3a17f016b2bcc4f95c4ea62ebeb2f30c78ba6691ac9943419be0788888888888842604051610e799796959493929190611828565b60405180910390a2505050505050505050565b610e94610eca565b6001600160a01b038116610ebe57604051631e4fbdf760e01b8152600060048201526024016101d1565b610ec781610ef7565b50565b6000546001600160a01b031633146105bb5760405163118cdaa760e01b81523360048201526024016101d1565b600080546001600160a01b038381166001600160a01b0319831681178455604051919092169283917f8be0079c531659141344cd1fd0a4f28419497f9722a3daafe3b4186f6b6457e09190a35050565b828054828255906000526020600020908101928215610f9a579160200282015b82811115610f9a5781546001600160a01b0319166001600160a01b03843516178255602090920191600190910190610f67565b50610fa6929150611075565b5090565b828054828255906000526020600020908101928215610f9a579160200282015b82811115610f9a578235825591602001919060010190610fca565b828054828255906000526020600020908101928215610f9a579160200282015b82811115610f9a57825182546001600160a01b0319166001600160a01b03909116178255602090920191600190910190611005565b828054828255906000526020600020908101928215610f9a579160200282015b82811115610f9a57825182559160200191906001019061105a565b5b80821115610fa65760008155600101611076565b60008083601f84011261109c57600080fd5b50813567ffffffffffffffff8111156110b457600080fd5b6020830191508360208285010111156110cc57600080fd5b9250929050565b6000806000604084860312156110e857600080fd5b833567ffffffffffffffff8111156110ff57600080fd5b61110b8682870161108a565b909790965060209590950135949350505050565b6000815180845260005b8181101561114557602081850181015186830182015201611129565b506000602082860101526020601f19601f83011685010191505092915050565b6000602080830181845280855180835260408601915060408160051b870101925083870160005b828110156111ba57603f198886030184526111a885835161111f565b9450928501929085019060010161118c565b5092979650505050505050565b600080602083850312156111da57600080fd5b823567ffffffffffffffff8111156111f157600080fd5b6111fd8582860161108a565b90969095509350505050565b600081518084526020808501945080840160005b838110156112395781518752958201959082019060010161121d565b509495945050505050565b60006020808352835160e08285015261126161010085018261111f565b905081850151601f198086840301604087015261127e838361111f565b6040880151878203830160608901528051808352908601945060009350908501905b808410156112c95784516001600160a01b031682529385019360019390930192908501906112a0565b5060608801519450818782030160808801526112e58186611209565b945050505050608084015160a084015260a084015161130860c085018215159052565b5060c084015160e08401528091505092915050565b60008083601f84011261132f57600080fd5b50813567ffffffffffffffff81111561134757600080fd5b6020830191508360208260051b85010111156110cc57600080fd5b6000806000806000806060878903121561137b57600080fd5b863567ffffffffffffffff8082111561139357600080fd5b61139f8a838b0161108a565b909850965060208901359150808211156113b857600080fd5b6113c48a838b0161131d565b909650945060408901359150808211156113dd57600080fd5b506113ea89828a0161131d565b979a9699509497509295939492505050565b6000806000806000806000806080898b03121561141857600080fd5b883567ffffffffffffffff8082111561143057600080fd5b61143c8c838d0161108a565b909a50985060208b013591508082111561145557600080fd5b6114618c838d0161108a565b909850965060408b013591508082111561147a57600080fd5b6114868c838d0161131d565b909650945060608b013591508082111561149f57600080fd5b506114ac8b828c0161131d565b999c989b5096995094979396929594505050565b80356001600160a01b03811681146114d757600080fd5b919050565b6000602082840312156114ee57600080fd5b6109a3826114c0565b8183823760009101908152919050565b602080825260169082015275141c9bda9958dd08191bd95cc81b9bdd08195e1a5cdd60521b604082015260600190565b634e487b7160e01b600052601160045260246000fd5b808201808211156105a3576105a3611537565b600181811c9082168061157457607f821691505b60208210810361159457634e487b7160e01b600052602260045260246000fd5b50919050565b60208082526027908201527f436f6e7472696275746f727320616e6420736861726573206c656e677468206d6040820152660d2e6dac2e8c6d60cb1b606082015260800190565b634e487b7160e01b600052603260045260246000fd5b60006001820161160957611609611537565b5060010190565b634e487b7160e01b600052604160045260246000fd5b601f82111561167057600081815260208120601f850160051c8101602086101561164d5750805b601f850160051c820191505b8181101561166c57828155600101611659565b5050505b505050565b815167ffffffffffffffff81111561168f5761168f611610565b6116a38161169d8454611560565b84611626565b602080601f8311600181146116d857600084156116c05750858301515b600019600386901b1c1916600185901b17855561166c565b600085815260208120601f198616915b82811015611707578886015182559484019460019091019084016116e8565b50858210156117255787850151600019600388901b60f8161c191681555b5050505050600190811b01905550565b67ffffffffffffffff83111561174d5761174d611610565b6117618361175b8354611560565b83611626565b6000601f841160018114611795576000851561177d5750838201355b600019600387901b1c1916600186901b1783556117ef565b600083815260209020601f19861690835b828110156117c657868501358255602094850194600190920191016117a6565b50868210156117e35760001960f88860031b161c19848701351681555b505060018560011b0183555b5050505050565b81835260006001600160fb1b0383111561180f57600080fd5b8260051b80836020870137939093016020019392505050565b60808152866080820152868860a0830137600060a08883018101829052601f19601f8a0116830183810382016020808601919091529181018890528891839160c0015b89831015611899576001600160a01b03611884856114c0565b1681529281019260019290920191810161186b565b85810360408701526118ac81898b6117f6565b9450505050508260608301529897505050505050505056fea26469706673582212200b7381ed1b3d952a6385fc5cea4f348be7a17af48ea446ff05ccf9caa3210f9464736f6c63430008140033",
  "linkReferences": {},
  "deployedLinkReferences": {}
}