{
  "_format": "hh-sol-artifact-1",
  "contractName": "RevenueDistributor",
  "sourceName": "contracts/RevenueDistributor.sol",
  "abi": [
    {
      "inputs": [
        {
          "internalType": "address",
          "name": "_projectRegistry",
          "type": "address"
        }
      ],
      "stateMutability": "nonpayable",
      "type": "constructor"
    },
    {
      "inputs": [
        {
          "internalType": "address",
          "name": "owner",
          "type": "address"
        }
      ],
      "name": "OwnableInvalidOwner",
      "type": "error"
    },
    {
      "inputs": [
        {
          "internalType": "address",
          "name": "account",
          "type": "address"
        }
      ],
      "name": "OwnableUnauthorizedAccount",
      "type": "error"
    },
    {
      "inputs": [],
      "name": "ReentrancyGuardReentrantCall",
      "type": "error"
    },
    {
      "anonymous": false,
      "inputs": [
        {
          "indexed": true,
          "internalType": "string",
          "name": "projectId",
          "type": "string"
        },
        {
          "indexed": true,
          "internalType": "address",
          "name": "contributor",
          "type": "address"
        },
        {
          "indexed": false,
          "internalType": "uint256",
          "name": "amount",
          "type": "uint256"
        },
        {
          "indexed": false,
          "internalType": "uint256",
          "name": "timestamp",
          "type": "uint256"
        }
      ],
      "name": "ContributorPaid",
      "type": "event"
    },
    {
      "anonymous": false,
      "inputs": [
        {
          "indexed": true,
          "internalType": "address",
          "name": "previousOwner",
          "type": "address"
        },
        {
          "indexed": true,
          "internalType": "address",
          "name": "newOwner",
          "type": "address"
        }
      ],
      "name": "OwnershipTransferred",
      "type": "event"
    },
    {
      "anonymous": false,
      "inputs": [
        {
          "indexed": true,
          "internalType": "string",
          "name": "projectId",
          "type": "string"
        },
        {
          "indexed": false,
          "internalType": "uint256",
          "name": "amount",
          "type": "uint256"
        },
        {
          "indexed": false,
          "internalType": "uint256",
          "name": "timestamp",
          "type": "uint256"
        }
      ],
      "name": "RevenueDistributed",
      "type": "event"
    },
    {
      "inputs": [
        {
          "internalType": "string",
          "name": "projectId",
          "type": "string"
        }
      ],
      "name": "distributeRevenue",
      "outputs": [],
      "stateMutability": "payable",
      "type": "function"
    },
    {
      "inputs": [
        {
          "internalType": "address",
          "name": "contributor",
          "type": "address"
        }
      ],
      "name": "getContributorBalance",
      "outputs": [
        {
          "internalType": "uint256",
          "name": "",
          "type": "uint256"
        }
      ],
      "stateMutability": "view",
      "type": "function"
    },
    {
      "inputs": [
        {
          "internalType": "string",
          "name": "projectId",
          "type": "string"
        },
        {
          "internalType": "address",
          "name": "contributor",
          "type": "address"
        }
      ],
      "name": "getContributorShare",
      "outputs": [
        {
          "internalType": "uint256",
          "name": "",
          "type": "uint256"
        }
      ],
      "stateMutability": "view",
      "type": "function"
    },
    {
      "inputs": [
        {
          "internalType": "string",
          "name": "projectId",
          "type": "string"
        }
      ],
      "name": "getProjectTotalDistributed",
      "outputs": [
        {
          "internalType": "uint256",
          "name": "",
          "type": "uint256"
        }
      ],
      "stateMutability": "view",
      "type": "function"
    },
    {
      "inputs": [],
      "name": "owner",
      "outputs": [
        {
          "internalType": "address",
          "name": "",
          "type": "address"
        }
      ],
      "stateMutability": "view",
      "type": "function"
    },
    {
      "inputs": [],
      "name": "projectRegistry",
      "outputs": [
        {
          "internalType": "contract IProjectRegistry",
          "name": "",
          "type": "address"
        }
      ],
      "stateMutability": "view",
      "type": "function"
    },
    {
      "inputs": [],
      "name": "renounceOwnership",
      "outputs": [],
      "stateMutability": "nonpayable",
      "type": "function"
    },
    {
      "inputs": [
        {
          "internalType": "address",
          "name": "newOwner",
          "type": "address"
        }
      ],
      "name": "transferOwnership",
      "outputs": [],
      "stateMutability": "nonpayable",
      "type": "function"
    },
    {
      "inputs": [
        {
          "internalType": "address",
          "name": "_projectRegistry",
          "type": "address"
        }
      ],
      "name": "updateProjectRegistry",
      "outputs": [],
      "stateMutability": "nonpayable",
      "type": "function"
    },
    {
      "inputs": [],
      "name": "withdrawContributorBalance",
      "outputs": [],
      "stateMutability": "nonpayable",
      "type": "function"
    },
    {
      "stateMutability": "payable",
      "type": "receive"
    }
  ],
  "bytecode": "0x608060405234801561001057600080fd5b5060405161111738038061111783398101604081905261002f9161012f565b338061005657604051631e4fbdf760e01b8152600060048201526024015b60405180910390fd5b61005f816100df565b50600180556001600160a01b0381166100ba5760405162461bcd60e51b815260206004820152601860248201527f496e76616c696420726567697374727920616464726573730000000000000000604482015260640161004d565b600280546001600160a01b0319166001600160a01b039290921691909117905561015f565b600080546001600160a01b038381166001600160a01b0319831681178455604051919092169283917f8be0079c531659141344cd1fd0a4f28419497f9722a3daafe3b4186f6b6457e09190a35050565b60006020828403121561014157600080fd5b81516001600160a01b038116811461015857600080fd5b9392505050565b610fa98061016e6000396000f3fe6080604052600436106100955760003560e01c80638b61c449116100595780638b61c449146101d65780638da5cb5b146101f6578063e2a08d3a14610214578063f2fde38b14610227578063f3e6e08a1461024757600080fd5b80633ef2c51d1461010957806359134b2b146101205780635a33d8dc1461015357806368b870d81461018b578063715018a6146101c157600080fd5b366101045760405162461bcd60e51b815260206004820152603460248201527f446972656374207061796d656e7473206e6f7420616c6c6f7765642e205573656044820152732064697374726962757465526576656e7565282960601b60648201526084015b60405180910390fd5b600080fd5b34801561011557600080fd5b5061011e610267565b005b34801561012c57600080fd5b5061014061013b366004610ad4565b61036b565b6040519081526020015b60405180910390f35b34801561015f57600080fd5b50600254610173906001600160a01b031681565b6040516001600160a01b03909116815260200161014a565b34801561019757600080fd5b506101406101a6366004610b2b565b6001600160a01b031660009081526003602052604090205490565b3480156101cd57600080fd5b5061011e61052a565b3480156101e257600080fd5b506101406101f1366004610b48565b61053c565b34801561020257600080fd5b506000546001600160a01b0316610173565b61011e610222366004610b48565b610568565b34801561023357600080fd5b5061011e610242366004610b2b565b610911565b34801561025357600080fd5b5061011e610262366004610b2b565b61094f565b61026f6109cf565b33600090815260036020526040902054806102c55760405162461bcd60e51b81526020600482015260166024820152754e6f2062616c616e636520746f20776974686472617760501b60448201526064016100fb565b336000818152600360205260408082208290555190919083908381818185875af1925050503d8060008114610316576040519150601f19603f3d011682016040523d82523d6000602084013e61031b565b606091505b505090508061035e5760405162461bcd60e51b815260206004820152600f60248201526e151c985b9cd9995c8819985a5b1959608a1b60448201526064016100fb565b505061036960018055565b565b60025460405163544554c960e11b81526000916001600160a01b03169063a88aa9929061039e9087908790600401610b8a565b602060405180830381865afa1580156103bb573d6000803e3d6000fd5b505050506040513d601f19601f820116820180604052508101906103df9190610bce565b6104235760405162461bcd60e51b815260206004820152601560248201527450726f6a656374206973206e6f742061637469766560581b60448201526064016100fb565b6002546040516327d348f160e11b81526000916001600160a01b031690634fa691e2906104569088908890600401610b8a565b600060405180830381865afa158015610473573d6000803e3d6000fd5b505050506040513d6000823e601f3d908101601f1916820160405261049b9190810190610dd1565b905060005b81604001515181101561051c57836001600160a01b0316826040015182815181106104cd576104cd610ed2565b60200260200101516001600160a01b03160361050a57816060015181815181106104f9576104f9610ed2565b602002602001015192505050610523565b8061051481610efe565b9150506104a0565b5060009150505b9392505050565b6105326109f9565b6103696000610a26565b600060048383604051610550929190610f17565b90815260200160405180910390205490505b92915050565b6105706109cf565b600034116105c05760405162461bcd60e51b815260206004820152601860248201527f4e6f20726576656e756520746f2064697374726962757465000000000000000060448201526064016100fb565b60025460405163544554c960e11b81526001600160a01b039091169063a88aa992906105f29085908590600401610b8a565b602060405180830381865afa15801561060f573d6000803e3d6000fd5b505050506040513d601f19601f820116820180604052508101906106339190610bce565b6106775760405162461bcd60e51b815260206004820152601560248201527450726f6a656374206973206e6f742061637469766560581b60448201526064016100fb565b6002546040516327d348f160e11b81526000916001600160a01b031690634fa691e2906106aa9086908690600401610b8a565b600060405180830381865afa1580156106c7573d6000803e3d6000fd5b505050506040513d6000823e601f3d908101601f191682016040526106ef9190810190610dd1565b90506000816040015151116107465760405162461bcd60e51b815260206004820152601a60248201527f4e6f20636f6e7472696275746f727320696e2070726f6a65637400000000000060448201526064016100fb565b6000805b82604001515181101561087d57600060648460600151838151811061077157610771610ed2565b6020026020010151346107849190610f27565b61078e9190610f3e565b90508060036000866040015185815181106107ab576107ab610ed2565b60200260200101516001600160a01b03166001600160a01b0316815260200190815260200160002060008282546107e29190610f60565b909155506107f290508184610f60565b92508360400151828151811061080a5761080a610ed2565b60200260200101516001600160a01b0316868660405161082b929190610f17565b60408051918290038220848352426020840152917fd441e3d9db5e23ab273fcc3f4a8e9f656beac797f67c1be4472b7c88f1425e06910160405180910390a3508061087581610efe565b91505061074a565b508060048585604051610891929190610f17565b908152602001604051809103902060008282546108ae9190610f60565b90915550506040516108c39085908590610f17565b60408051918290038220348352426020840152917f89cfc11af4ae2a429547287332d7180de8014cbd394c13ada881503921fcfdc8910160405180910390a2505061090d60018055565b5050565b6109196109f9565b6001600160a01b03811661094357604051631e4fbdf760e01b8152600060048201526024016100fb565b61094c81610a26565b50565b6109576109f9565b6001600160a01b0381166109ad5760405162461bcd60e51b815260206004820152601860248201527f496e76616c69642072656769737472792061646472657373000000000000000060448201526064016100fb565b600280546001600160a01b0319166001600160a01b0392909216919091179055565b6002600154036109f257604051633ee5aeb560e01b815260040160405180910390fd5b6002600155565b6000546001600160a01b031633146103695760405163118cdaa760e01b81523360048201526024016100fb565b600080546001600160a01b038381166001600160a01b0319831681178455604051919092169283917f8be0079c531659141344cd1fd0a4f28419497f9722a3daafe3b4186f6b6457e09190a35050565b60008083601f840112610a8857600080fd5b50813567ffffffffffffffff811115610aa057600080fd5b602083019150836020828501011115610ab857600080fd5b9250929050565b6001600160a01b038116811461094c57600080fd5b600080600060408486031215610ae957600080fd5b833567ffffffffffffffff811115610b0057600080fd5b610b0c86828701610a76565b9094509250506020840135610b2081610abf565b809150509250925092565b600060208284031215610b3d57600080fd5b813561052381610abf565b60008060208385031215610b5b57600080fd5b823567ffffffffffffffff811115610b7257600080fd5b610b7e85828601610a76565b90969095509350505050565b60208152816020820152818360408301376000818301604090810191909152601f909201601f19160101919050565b80518015158114610bc957600080fd5b919050565b600060208284031215610be057600080fd5b61052382610bb9565b634e487b7160e01b600052604160045260246000fd5b60405160e0810167ffffffffffffffff81118282101715610c2257610c22610be9565b60405290565b604051601f8201601f1916810167ffffffffffffffff81118282101715610c5157610c51610be9565b604052919050565b600082601f830112610c6a57600080fd5b815167ffffffffffffffff811115610c8457610c84610be9565b6020610c98601f8301601f19168201610c28565b8281528582848701011115610cac57600080fd5b60005b83811015610cca578581018301518282018401528201610caf565b506000928101909101919091529392505050565b600067ffffffffffffffff821115610cf857610cf8610be9565b5060051b60200190565b600082601f830112610d1357600080fd5b81516020610d28610d2383610cde565b610c28565b82815260059290921b84018101918181019086841115610d4757600080fd5b8286015b84811015610d6b578051610d5e81610abf565b8352918301918301610d4b565b509695505050505050565b600082601f830112610d8757600080fd5b81516020610d97610d2383610cde565b82815260059290921b84018101918181019086841115610db657600080fd5b8286015b84811015610d6b5780518352918301918301610dba565b600060208284031215610de357600080fd5b815167ffffffffffffffff80821115610dfb57600080fd5b9083019060e08286031215610e0f57600080fd5b610e17610bff565b825182811115610e2657600080fd5b610e3287828601610c59565b825250602083015182811115610e4757600080fd5b610e5387828601610c59565b602083015250604083015182811115610e6b57600080fd5b610e7787828601610d02565b604083015250606083015182811115610e8f57600080fd5b610e9b87828601610d76565b60608301525060808301516080820152610eb760a08401610bb9565b60a082015260c083015160c082015280935050505092915050565b634e487b7160e01b600052603260045260246000fd5b634e487b7160e01b600052601160045260246000fd5b600060018201610f1057610f10610ee8565b5060010190565b8183823760009101908152919050565b808202811582820484141761056257610562610ee8565b600082610f5b57634e487b7160e01b600052601260045260246000fd5b500490565b8082018082111561056257610562610ee856fea26469706673582212203e9ba58d816666fa2681211dac587ee44887e3658e812b874aeea1225e96943664736f6c63430008140033",
  "linkReferences": {},
  "deployedLinkReferences": {}
}